:1009E0003801060C8254656D7065726174757265AC
:0209F0003A00CB
:1008F60078097C007D007BFF7A0979E07E007F0520
:100906001208D0780E7C007D007BFF7A0979E57E9F
:10091600007F0D1208D07590FFE4F580F508C3E559
:1009260008940574809480501174092508F8E6FF30
:100936001209FE1209BC050880E4E4F508C3E508BF
:10094600940C748094805011740E2508F8E6FF12FA
:100956000A081209BC050880E4D2B2D2B0D2B1C2EC
:10096600B11209BCD2B120B2FDC2B085901BAF1B3B
:0E0976001209847FE87E031209C0D2B080E12E
:0A09FE008F80C2A71209B8C2A5221B
:0A0A08008F80D2A71209B8C2A52200
:020984008F1CC6
:100986007FC61209FEE51C75F00A842430FFE51CBB
:1009960075F00A8485F01D7430251DF51D751EDF62
:1009A600120A08AF1D120A08AF1E120A087F430278
:0209B6000A082D
:0809B800C2A6D2A57F017E005A
:1009C000E4FDFCC3ED9FEC9E5015E4FBFA0BBB006D
:0F09D000010ABA05F8BB5FF50DBD00010C80E40C
:0109DF0022F5
:030000000209F200
:0C09F200787FE4F6D8FD75811E0208F63F
:10080000E709F608DFFA8046E709F208DFFA803EDA
:1008100088828C83E709F0A3DFFA8032E309F608C7
:10082000DFFA8078E309F208DFFA807088828C832F
:10083000E309F0A3DFFA806489828A83E0A3F608E3
:10084000DFFA805889828A83E0A3F208DFFA804CBD
:1008500080D280FA80C680D4806980F28033801094
:1008600080A680EA809A80A880DA80E280CA8033FD
:1008700089828A83ECFAE493A3C8C582C8CCC58375
:10088000CCF0A3C8C582C8CCC583CCDFE9DEE78045
:100890000D89828A83E493A3F608DFF9ECFAA9F0C4
:1008A000EDFB2289828A83ECFAE0A3C8C582C8CC1A
:1008B000C583CCF0A3C8C582C8CCC583CCDFEADE33
:1008C000E880DB89828A83E493A3F208DFF980CC95
:1008D00088F0EF60010E4E60C388F0ED2402B4048E
:1008E0000050B9F582EB2402B4040050AF23234535
:0608F00082239008507302
:00000001FF
